{
  "_format": "hh-sol-artifact-1",
  "contractName": "MessageProxyForSchain",
  "sourceName": "contracts/schain/MessageProxyForSchain.sol",
  "abi": [
    {
      "anonymous": false,
      "inputs": [
        {
          "indexed": true,
          "internalType": "bytes32",
          "name": "chainHash",
          "type": "bytes32"
        },
        {
          "indexed": false,
          "internalType": "address",
          "name": "contractAddress",
          "type": "address"
        }
      ],
      "name": "ExtraContractRegistered",
      "type": "event"
    },
    {
      "anonymous": false,
      "inputs": [
        {
          "indexed": true,
          "internalType": "bytes32",
          "name": "chainHash",
          "type": "bytes32"
        },
        {
          "indexed": false,
          "internalType": "address",
          "name": "contractAddress",
          "type": "address"
        }
      ],
      "name": "ExtraContractRemoved",
      "type": "event"
    },
    {
      "anonymous": false,
      "inputs": [
        {
          "indexed": false,
          "internalType": "uint256",
          "name": "oldValue",
          "type": "uint256"
        },
        {
          "indexed": false,
          "internalType": "uint256",
          "name": "newValue",
          "type": "uint256"
        }
      ],
      "name": "GasLimitWasChanged",
      "type": "event"
    },
    {
      "anonymous": false,
      "inputs": [
        {
          "indexed": false,
          "internalType": "uint8",
          "name": "version",
          "type": "uint8"
        }
      ],
      "name": "Initialized",
      "type": "event"
    },
    {
      "anonymous": false,
      "inputs": [
        {
          "indexed": true,
          "internalType": "bytes32",
          "name": "dstChainHash",
          "type": "bytes32"
        },
        {
          "indexed": true,
          "internalType": "uint256",
          "name": "msgCounter",
          "type": "uint256"
        },
        {
          "indexed": true,
          "internalType": "address",
          "name": "srcContract",
          "type": "address"
        },
        {
          "indexed": false,
          "internalType": "address",
          "name": "dstContract",
          "type": "address"
        },
        {
          "indexed": false,
          "internalType": "bytes",
          "name": "data",
          "type": "bytes"
        }
      ],
      "name": "OutgoingMessage",
      "type": "event"
    },
    {
      "anonymous": false,
      "inputs": [
        {
          "indexed": true,
          "internalType": "uint256",
          "name": "msgCounter",
          "type": "uint256"
        },
        {
          "indexed": false,
          "internalType": "bytes",
          "name": "message",
          "type": "bytes"
        }
      ],
      "name": "PostMessageError",
      "type": "event"
    },
    {
      "anonymous": false,
      "inputs": [
        {
          "indexed": true,
          "internalType": "bytes32",
          "name": "role",
          "type": "bytes32"
        },
        {
          "indexed": true,
          "internalType": "bytes32",
          "name": "previousAdminRole",
          "type": "bytes32"
        },
        {
          "indexed": true,
          "internalType": "bytes32",
          "name": "newAdminRole",
          "type": "bytes32"
        }
      ],
      "name": "RoleAdminChanged",
      "type": "event"
    },
    {
      "anonymous": false,
      "inputs": [
        {
          "indexed": true,
          "internalType": "bytes32",
          "name": "role",
          "type": "bytes32"
        },
        {
          "indexed": true,
          "internalType": "address",
          "name": "account",
          "type": "address"
        },
        {
          "indexed": true,
          "internalType": "address",
          "name": "sender",
          "type": "address"
        }
      ],
      "name": "RoleGranted",
      "type": "event"
    },
    {
      "anonymous": false,
      "inputs": [
        {
          "indexed": true,
          "internalType": "bytes32",
          "name": "role",
          "type": "bytes32"
        },
        {
          "indexed": true,
          "internalType": "address",
          "name": "account",
          "type": "address"
        },
        {
          "indexed": true,
          "internalType": "address",
          "name": "sender",
          "type": "address"
        }
      ],
      "name": "RoleRevoked",
      "type": "event"
    },
    {
      "anonymous": false,
      "inputs": [
        {
          "indexed": false,
          "internalType": "string",
          "name": "oldVersion",
          "type": "string"
        },
        {
          "indexed": false,
          "internalType": "string",
          "name": "newVersion",
          "type": "string"
        }
      ],
      "name": "VersionUpdated",
      "type": "event"
    },
    {
      "inputs": [],
      "name": "CHAIN_CONNECTOR_ROLE",
      "outputs": [
        {
          "internalType": "bytes32",
          "name": "",
          "type": "bytes32"
        }
      ],
      "stateMutability": "view",
      "type": "function"
    },
    {
      "inputs": [],
      "name": "CONSTANT_SETTER_ROLE",
      "outputs": [
        {
          "internalType": "bytes32",
          "name": "",
          "type": "bytes32"
        }
      ],
      "stateMutability": "view",
      "type": "function"
    },
    {
      "inputs": [],
      "name": "DEFAULT_ADMIN_ROLE",
      "outputs": [
        {
          "internalType": "bytes32",
          "name": "",
          "type": "bytes32"
        }
      ],
      "stateMutability": "view",
      "type": "function"
    },
    {
      "inputs": [],
      "name": "ETHERBASE",
      "outputs": [
        {
          "internalType": "contract IEtherbaseUpgradeable",
          "name": "",
          "type": "address"
        }
      ],
      "stateMutability": "view",
      "type": "function"
    },
    {
      "inputs": [],
      "name": "EXTRA_CONTRACT_REGISTRAR_ROLE",
      "outputs": [
        {
          "internalType": "bytes32",
          "name": "",
          "type": "bytes32"
        }
      ],
      "stateMutability": "view",
      "type": "function"
    },
    {
      "inputs": [],
      "name": "MAINNET_HASH",
      "outputs": [
        {
          "internalType": "bytes32",
          "name": "",
          "type": "bytes32"
        }
      ],
      "stateMutability": "view",
      "type": "function"
    },
    {
      "inputs": [],
      "name": "MESSAGES_LENGTH",
      "outputs": [
        {
          "internalType": "uint256",
          "name": "",
          "type": "uint256"
        }
      ],
      "stateMutability": "view",
      "type": "function"
    },
    {
      "inputs": [],
      "name": "MINIMUM_BALANCE",
      "outputs": [
        {
          "internalType": "uint256",
          "name": "",
          "type": "uint256"
        }
      ],
      "stateMutability": "view",
      "type": "function"
    },
    {
      "inputs": [],
      "name": "REVERT_REASON_LENGTH",
      "outputs": [
        {
          "internalType": "uint256",
          "name": "",
          "type": "uint256"
        }
      ],
      "stateMutability": "view",
      "type": "function"
    },
    {
      "inputs": [
        {
          "internalType": "string",
          "name": "chainName",
          "type": "string"
        }
      ],
      "name": "addConnectedChain",
      "outputs": [],
      "stateMutability": "nonpayable",
      "type": "function"
    },
    {
      "inputs": [
        {
          "internalType": "bytes32",
          "name": "",
          "type": "bytes32"
        }
      ],
      "name": "connectedChains",
      "outputs": [
        {
          "internalType": "uint256",
          "name": "incomingMessageCounter",
          "type": "uint256"
        },
        {
          "internalType": "uint256",
          "name": "outgoingMessageCounter",
          "type": "uint256"
        },
        {
          "internalType": "bool",
          "name": "inited",
          "type": "bool"
        }
      ],
      "stateMutability": "view",
      "type": "function"
    },
    {
      "inputs": [],
      "name": "gasLimit",
      "outputs": [
        {
          "internalType": "uint256",
          "name": "",
          "type": "uint256"
        }
      ],
      "stateMutability": "view",
      "type": "function"
    },
    {
      "inputs": [
        {
          "internalType": "bytes32",
          "name": "schainHash",
          "type": "bytes32"
        }
      ],
      "name": "getContractRegisteredLength",
      "outputs": [
        {
          "internalType": "uint256",
          "name": "",
          "type": "uint256"
        }
      ],
      "stateMutability": "view",
      "type": "function"
    },
    {
      "inputs": [
        {
          "internalType": "bytes32",
          "name": "schainHash",
          "type": "bytes32"
        },
        {
          "internalType": "uint256",
          "name": "from",
          "type": "uint256"
        },
        {
          "internalType": "uint256",
          "name": "to",
          "type": "uint256"
        }
      ],
      "name": "getContractRegisteredRange",
      "outputs": [
        {
          "internalType": "address[]",
          "name": "contractsInRange",
          "type": "address[]"
        }
      ],
      "stateMutability": "view",
      "type": "function"
    },
    {
      "inputs": [
        {
          "internalType": "string",
          "name": "fromSchainName",
          "type": "string"
        }
      ],
      "name": "getIncomingMessagesCounter",
      "outputs": [
        {
          "internalType": "uint256",
          "name": "",
          "type": "uint256"
        }
      ],
      "stateMutability": "view",
      "type": "function"
    },
    {
      "inputs": [
        {
          "internalType": "string",
          "name": "targetSchainName",
          "type": "string"
        }
      ],
      "name": "getOutgoingMessagesCounter",
      "outputs": [
        {
          "internalType": "uint256",
          "name": "",
          "type": "uint256"
        }
      ],
      "stateMutability": "view",
      "type": "function"
    },
    {
      "inputs": [
        {
          "internalType": "bytes32",
          "name": "role",
          "type": "bytes32"
        }
      ],
      "name": "getRoleAdmin",
      "outputs": [
        {
          "internalType": "bytes32",
          "name": "",
          "type": "bytes32"
        }
      ],
      "stateMutability": "view",
      "type": "function"
    },
    {
      "inputs": [
        {
          "internalType": "bytes32",
          "name": "role",
          "type": "bytes32"
        },
        {
          "internalType": "uint256",
          "name": "index",
          "type": "uint256"
        }
      ],
      "name": "getRoleMember",
      "outputs": [
        {
          "internalType": "address",
          "name": "",
          "type": "address"
        }
      ],
      "stateMutability": "view",
      "type": "function"
    },
    {
      "inputs": [
        {
          "internalType": "bytes32",
          "name": "role",
          "type": "bytes32"
        }
      ],
      "name": "getRoleMemberCount",
      "outputs": [
        {
          "internalType": "uint256",
          "name": "",
          "type": "uint256"
        }
      ],
      "stateMutability": "view",
      "type": "function"
    },
    {
      "inputs": [
        {
          "internalType": "bytes32",
          "name": "role",
          "type": "bytes32"
        },
        {
          "internalType": "address",
          "name": "account",
          "type": "address"
        }
      ],
      "name": "grantRole",
      "outputs": [],
      "stateMutability": "nonpayable",
      "type": "function"
    },
    {
      "inputs": [
        {
          "internalType": "bytes32",
          "name": "role",
          "type": "bytes32"
        },
        {
          "internalType": "address",
          "name": "account",
          "type": "address"
        }
      ],
      "name": "hasRole",
      "outputs": [
        {
          "internalType": "bool",
          "name": "",
          "type": "bool"
        }
      ],
      "stateMutability": "view",
      "type": "function"
    },
    {
      "inputs": [
        {
          "internalType": "contract IKeyStorage",
          "name": "blsKeyStorage",
          "type": "address"
        },
        {
          "internalType": "string",
          "name": "schainName",
          "type": "string"
        }
      ],
      "name": "initialize",
      "outputs": [],
      "stateMutability": "nonpayable",
      "type": "function"
    },
    {
      "inputs": [
        {
          "internalType": "bytes32",
          "name": "chainHash",
          "type": "bytes32"
        },
        {
          "internalType": "address[]",
          "name": "contracts",
          "type": "address[]"
        }
      ],
      "name": "initializeAllRegisteredContracts",
      "outputs": [],
      "stateMutability": "nonpayable",
      "type": "function"
    },
    {
      "inputs": [
        {
          "internalType": "uint256",
          "name": "newGasLimit",
          "type": "uint256"
        }
      ],
      "name": "initializeMessageProxy",
      "outputs": [],
      "stateMutability": "nonpayable",
      "type": "function"
    },
    {
      "inputs": [
        {
          "internalType": "string",
          "name": "schainName",
          "type": "string"
        }
      ],
      "name": "isConnectedChain",
      "outputs": [
        {
          "internalType": "bool",
          "name": "",
          "type": "bool"
        }
      ],
      "stateMutability": "view",
      "type": "function"
    },
    {
      "inputs": [
        {
          "internalType": "bytes32",
          "name": "schainHash",
          "type": "bytes32"
        },
        {
          "internalType": "address",
          "name": "contractAddress",
          "type": "address"
        }
      ],
      "name": "isContractRegistered",
      "outputs": [
        {
          "internalType": "bool",
          "name": "",
          "type": "bool"
        }
      ],
      "stateMutability": "view",
      "type": "function"
    },
    {
      "inputs": [],
      "name": "keyStorage",
      "outputs": [
        {
          "internalType": "contract IKeyStorage",
          "name": "",
          "type": "address"
        }
      ],
      "stateMutability": "view",
      "type": "function"
    },
    {
      "inputs": [],
      "name": "messageInProgress",
      "outputs": [
        {
          "internalType": "bool",
          "name": "",
          "type": "bool"
        }
      ],
      "stateMutability": "view",
      "type": "function"
    },
    {
      "inputs": [
        {
          "internalType": "string",
          "name": "fromChainName",
          "type": "string"
        },
        {
          "internalType": "uint256",
          "name": "startingCounter",
          "type": "uint256"
        },
        {
          "components": [
            {
              "internalType": "address",
              "name": "sender",
              "type": "address"
            },
            {
              "internalType": "address",
              "name": "destinationContract",
              "type": "address"
            },
            {
              "internalType": "bytes",
              "name": "data",
              "type": "bytes"
            }
          ],
          "internalType": "struct IMessageProxy.Message[]",
          "name": "messages",
          "type": "tuple[]"
        },
        {
          "components": [
            {
              "internalType": "uint256[2]",
              "name": "blsSignature",
              "type": "uint256[2]"
            },
            {
              "internalType": "uint256",
              "name": "hashA",
              "type": "uint256"
            },
            {
              "internalType": "uint256",
              "name": "hashB",
              "type": "uint256"
            },
            {
              "internalType": "uint256",
              "name": "counter",
              "type": "uint256"
            }
          ],
          "internalType": "struct IMessageProxy.Signature",
          "name": "signature",
          "type": "tuple"
        }
      ],
      "name": "postIncomingMessages",
      "outputs": [],
      "stateMutability": "nonpayable",
      "type": "function"
    },
    {
      "inputs": [
        {
          "internalType": "bytes32",
          "name": "targetChainHash",
          "type": "bytes32"
        },
        {
          "internalType": "address",
          "name": "targetContract",
          "type": "address"
        },
        {
          "internalType": "bytes",
          "name": "data",
          "type": "bytes"
        }
      ],
      "name": "postOutgoingMessage",
      "outputs": [],
      "stateMutability": "nonpayable",
      "type": "function"
    },
    {
      "inputs": [
        {
          "internalType": "string",
          "name": "chainName",
          "type": "string"
        },
        {
          "internalType": "address",
          "name": "extraContract",
          "type": "address"
        }
      ],
      "name": "registerExtraContract",
      "outputs": [],
      "stateMutability": "nonpayable",
      "type": "function"
    },
    {
      "inputs": [
        {
          "internalType": "address",
          "name": "extraContract",
          "type": "address"
        }
      ],
      "name": "registerExtraContractForAll",
      "outputs": [],
      "stateMutability": "nonpayable",
      "type": "function"
    },
    {
      "inputs": [
        {
          "internalType": "string",
          "name": "chainName",
          "type": "string"
        }
      ],
      "name": "removeConnectedChain",
      "outputs": [],
      "stateMutability": "nonpayable",
      "type": "function"
    },
    {
      "inputs": [
        {
          "internalType": "string",
          "name": "chainName",
          "type": "string"
        },
        {
          "internalType": "address",
          "name": "extraContract",
          "type": "address"
        }
      ],
      "name": "removeExtraContract",
      "outputs": [],
      "stateMutability": "nonpayable",
      "type": "function"
    },
    {
      "inputs": [
        {
          "internalType": "address",
          "name": "extraContract",
          "type": "address"
        }
      ],
      "name": "removeExtraContractForAll",
      "outputs": [],
      "stateMutability": "nonpayable",
      "type": "function"
    },
    {
      "inputs": [
        {
          "internalType": "bytes32",
          "name": "role",
          "type": "bytes32"
        },
        {
          "internalType": "address",
          "name": "account",
          "type": "address"
        }
      ],
      "name": "renounceRole",
      "outputs": [],
      "stateMutability": "nonpayable",
      "type": "function"
    },
    {
      "inputs": [
        {
          "internalType": "bytes32",
          "name": "role",
          "type": "bytes32"
        },
        {
          "internalType": "address",
          "name": "account",
          "type": "address"
        }
      ],
      "name": "revokeRole",
      "outputs": [],
      "stateMutability": "nonpayable",
      "type": "function"
    },
    {
      "inputs": [],
      "name": "schainHash",
      "outputs": [
        {
          "internalType": "bytes32",
          "name": "",
          "type": "bytes32"
        }
      ],
      "stateMutability": "view",
      "type": "function"
    },
    {
      "inputs": [
        {
          "internalType": "uint256",
          "name": "newGasLimit",
          "type": "uint256"
        }
      ],
      "name": "setNewGasLimit",
      "outputs": [],
      "stateMutability": "nonpayable",
      "type": "function"
    },
    {
      "inputs": [
        {
          "internalType": "string",
          "name": "newVersion",
          "type": "string"
        }
      ],
      "name": "setVersion",
      "outputs": [],
      "stateMutability": "nonpayable",
      "type": "function"
    },
    {
      "inputs": [
        {
          "internalType": "bytes4",
          "name": "interfaceId",
          "type": "bytes4"
        }
      ],
      "name": "supportsInterface",
      "outputs": [
        {
          "internalType": "bool",
          "name": "",
          "type": "bool"
        }
      ],
      "stateMutability": "view",
      "type": "function"
    },
    {
      "inputs": [
        {
          "components": [
            {
              "internalType": "bytes32",
              "name": "dstChainHash",
              "type": "bytes32"
            },
            {
              "internalType": "uint256",
              "name": "msgCounter",
              "type": "uint256"
            },
            {
              "internalType": "address",
              "name": "srcContract",
              "type": "address"
            },
            {
              "internalType": "address",
              "name": "dstContract",
              "type": "address"
            },
            {
              "internalType": "bytes",
              "name": "data",
              "type": "bytes"
            }
          ],
          "internalType": "struct IMessageProxyForSchain.OutgoingMessageData",
          "name": "message",
          "type": "tuple"
        }
      ],
      "name": "verifyOutgoingMessageData",
      "outputs": [
        {
          "internalType": "bool",
          "name": "isValidMessage",
          "type": "bool"
        }
      ],
      "stateMutability": "view",
      "type": "function"
    },
    {
      "inputs": [
        {
          "internalType": "bytes32",
          "name": "hashedMessage",
          "type": "bytes32"
        },
        {
          "components": [
            {
              "internalType": "uint256[2]",
              "name": "blsSignature",
              "type": "uint256[2]"
            },
            {
              "internalType": "uint256",
              "name": "hashA",
              "type": "uint256"
            },
            {
              "internalType": "uint256",
              "name": "hashB",
              "type": "uint256"
            },
            {
              "internalType": "uint256",
              "name": "counter",
              "type": "uint256"
            }
          ],
          "internalType": "struct IMessageProxy.Signature",
          "name": "signature",
          "type": "tuple"
        }
      ],
      "name": "verifySignature",
      "outputs": [
        {
          "internalType": "bool",
          "name": "",
          "type": "bool"
        }
      ],
      "stateMutability": "view",
      "type": "function"
    },
    {
      "inputs": [],
      "name": "version",
      "outputs": [
        {
          "internalType": "string",
          "name": "",
          "type": "string"
        }
      ],
      "stateMutability": "view",
      "type": "function"
    }
  ],
  "bytecode": "0x608060405234801561001057600080fd5b50614350806100206000396000f3fe608060405234801561001057600080fd5b50600436106102745760003560e01c80636a156b9a11610151578063bbc4e8c2116100c3578063e6ab840311610087578063e6ab8403146105a3578063f2f63605146105f2578063f399e22e14610605578063f68016b714610618578063f79f795414610621578063f8c88a161461063457600080fd5b8063bbc4e8c21461053b578063bdb40cb014610562578063ca15c8731461056a578063cab010c91461057d578063d547741f1461059057600080fd5b80639010d07c116101155780639010d07c146104d457806391d14854146104e757806394489202146104fa578063999ab9aa1461050d578063a217fddf14610520578063a8bb1b7d1461052857600080fd5b80636a156b9a146104635780636e2f37b01461048857806377fe0f311461049b578063788bc78c146104ae5780637aa38a7c146104c157600080fd5b80633b690b6b116101ea57806353498cdd116101ae57806353498cdd146103f357806354fd4d5014610402578063603e5d1314610417578063654d88281461042a5780636660de1c1461043d57806367ec60201461045057600080fd5b80633b690b6b1461039c5780633cdd2cc3146103a55780634d203859146103b8578063523c8ab6146103cb57806352dc24ee146103e057600080fd5b8063214883401161023c57806321488340146102ec578063248a9ca31461030c57806328c5e1821461032f5780632f2ff15d1461036157806336568abe146103765780633b597ffe1461038957600080fd5b806301ffc9a7146102795780630fc307a8146102a157806313c52260146102c2578063198e687c146102d75780631cf5379d146102df575b600080fd5b61028c610287366004613872565b610647565b60405190151581526020015b60405180910390f35b6102b46102af3660046136f2565b610672565b604051908152602001610298565b6102b46000805160206142db83398151915281565b6102b4604081565b60d35461028c9060ff1681565b6102ff6102fa366004613846565b610689565b6040516102989190613c9a565b6102b461031a3660046136f2565b60009081526065602052604090206001015490565b6102b46040516613585a5b9b995d60ca1b60208201526027016040516020818303038152906040528051906020012081565b61037461036f366004613724565b6107c8565b005b610374610384366004613724565b6107f2565b6103746103973660046136f2565b610870565b6102b460cd5481565b6103746103b33660046139b6565b610936565b6103746103c63660046136b3565b610a20565b6102b460008051602061429b83398151915281565b61028c6103ee3660046137f7565b610b5a565b6102b4670de0b6b3a764000081565b61040a610b6d565b6040516102989190613d12565b61037461042536600461392c565b610bfb565b61028c610438366004613724565b610e9e565b61037461044b3660046137ac565b610eb6565b6102b461045e3660046138eb565b611066565b61047062695d1f60891b81565b6040516001600160a01b039091168152602001610298565b6103746104963660046136f2565b6110df565b6102b46104a93660046138eb565b611213565b6103746104bc3660046138eb565b6112b9565b61028c6104cf366004613a73565b611358565b6104706104e2366004613824565b611392565b61028c6104f5366004613724565b6113aa565b610374610508366004613754565b6113d5565b61028c61051b3660046139b6565b61148b565b6102b4600081565b6103746105363660046136b3565b6114d4565b6102b47f96e3fc3be15159903e053027cff8a23f39a990e0194abcd8ac1cf1b355b8b93c81565b6102b4600a81565b6102b46105783660046136f2565b6115ce565b61037461058b3660046139ea565b6115e5565b61037461059e366004613724565b611670565b6105d56105b13660046136f2565b60c96020526000908152604090208054600182015460029092015490919060ff1683565b604080519384526020840192909252151590820152606001610298565b6103746106003660046138eb565b611695565b61037461061336600461389c565b61171d565b6102b460cb5481565b60cc54610470906001600160a01b031681565b6103746106423660046139ea565b6118ba565b60006001600160e01b03198216635a05180f60e01b148061066c575061066c82611945565b92915050565b600081815260d16020526040812061066c9061197a565b606081831080156106a45750600a6106a18484614024565b11155b80156106c65750600084815260d1602052604090206106c29061197a565b8211155b61070c5760405162461bcd60e51b815260206004820152601260248201527114985b99d9481a5cc81a5b98dbdc9c9958dd60721b60448201526064015b60405180910390fd5b6107168383614024565b6001600160401b0381111561072d5761072d6141aa565b604051908082528060200260200182016040528015610756578160200160208202803683370190505b509050825b828110156107c057600085815260d16020526040902061077b9082611984565b826107868684614024565b8151811061079657610796614194565b6001600160a01b0390921660209283029190910190910152806107b881614123565b91505061075b565b509392505050565b6000828152606560205260409020600101546107e381611990565b6107ed838361199d565b505050565b6001600160a01b03811633146108625760405162461bcd60e51b815260206004820152602f60248201527f416363657373436f6e74726f6c3a2063616e206f6e6c792072656e6f756e636560448201526e103937b632b9903337b91039b2b63360891b6064820152608401610703565b61086c82826119bf565b5050565b61089a7f96e3fc3be15159903e053027cff8a23f39a990e0194abcd8ac1cf1b355b8b93c336113aa565b6108f55760405162461bcd60e51b815260206004820152602660248201527f4e6f7420656e6f756768207065726d697373696f6e7320746f2073657420636f6044820152651b9cdd185b9d60d21b6064820152608401610703565b60cb5460408051918252602082018390527f8abddb75fd50f7583079c0b550ec7a54fa3fd8d5dd1d2dfdc473f7ce27e3b9ac910160405180910390a160cb55565b61094e6000805160206142db833981519152336113aa565b61096a5760405162461bcd60e51b815260040161070390613dd9565b60008160405160200161097d9190613be5565b6040516020818303038152906040528051906020012090506040516020016109b2906613585a5b9b995d60ca1b815260070190565b60405160208183030381529060405280519060200120811415610a175760405162461bcd60e51b815260206004820152601960248201527f4d61696e6e65742063616e6e6f742062652072656d6f766564000000000000006044820152606401610703565b61086c826119e1565b610a3860008051602061429b833981519152336113aa565b610a545760405162461bcd60e51b815260040161070390613e0e565b6001600160a01b0381163b610aab5760405162461bcd60e51b815260206004820152601f60248201527f476976656e2061646472657373206973206e6f74206120636f6e7472616374006044820152606401610703565b610ac78160d15b60008080526020919091526040902090611ac4565b15610ae45760405162461bcd60e51b815260040161070390613f39565b6000805260d1602052610b167efa5413e7b01fc543d01f0911de573ace463b956369df4472f39030e8d98b7782611ae6565b506040516001600160a01b03821681526000907f03bcd152926369e3cf05cb7af471a15d680e8ec5d20b13705048d14e94679365906020015b60405180910390a250565b6000610b668383611afb565b9392505050565b60d28054610b7a9061407e565b80601f0160208091040260200160405190810160405280929190818152602001828054610ba69061407e565b8015610bf35780601f10610bc857610100808354040283529160200191610bf3565b820191906000526020600020905b815481529060010190602001808311610bd657829003601f168201915b505050505081565b60d35460ff1615610c475760405162461bcd60e51b81526020600482015260166024820152754d65737361676520697320696e2070726f677265737360501b6044820152606401610703565b60d3805460ff19166001179055604051600090610c6a9088908890602001613bd5565b60408051601f198184030181529181528151602092830120600081815260c990935291206002015490915060ff16610cdf5760405162461bcd60e51b815260206004820152601860248201527710da185a5b881a5cc81b9bdd081a5b9a5d1a585b1a5e995960421b6044820152606401610703565b600a831115610d245760405162461bcd60e51b8152602060048201526011602482015270546f6f206d616e79206d6573736167657360781b6044820152606401610703565b610d3a610d348585888b8b611ba8565b83611afb565b610d865760405162461bcd60e51b815260206004820152601960248201527f5369676e6174757265206973206e6f74207665726966696564000000000000006044820152606401610703565b600081815260c960205260409020548514610e095760405162461bcd60e51b815260206004820152603860248201527f5374617274696e6720636f756e746572206973206e6f74207175616c20746f2060448201527f696e636f6d696e67206d65737361676520636f756e74657200000000000000006064820152608401610703565b600081815260c9602052604081208054859290610e27908490613fd9565b90915550600090505b83811015610e8257610e7082868684818110610e4e57610e4e614194565b9050602002810190610e609190613fc3565b610e6b896001613fd9565b611d23565b80610e7a81614123565b915050610e30565b50610e8b611f48565b505060d3805460ff191690555050505050565b600082815260d160205260408120610b669083611ac4565b610ec16000336113aa565b610f0d5760405162461bcd60e51b815260206004820152601860248201527f53656e646572206973206e6f7420617574686f72697a656400000000000000006044820152606401610703565b60005b8181101561106057600084815260ca6020526040812090848484818110610f3957610f39614194565b9050602002016020810190610f4e91906136b3565b6001600160a01b0316815260208101919091526040016000205460ff168015610fb25750610fb0838383818110610f8757610f87614194565b9050602002016020810190610f9c91906136b3565b600086815260d16020526040902090611ac4565b155b1561104e57610ff5838383818110610fcc57610fcc614194565b9050602002016020810190610fe191906136b3565b600086815260d16020526040902090611ae6565b50600084815260ca602052604081209084848481811061101757611017614194565b905060200201602081019061102c91906136b3565b6001600160a01b031681526020810191909152604001600020805460ff191690555b8061105881614123565b915050610f10565b50505050565b600080838360405160200161107c929190613bd5565b60408051601f198184030181529181528151602092830120600081815260c990935291206002015490915060ff166110c65760405162461bcd60e51b815260040161070390613ea5565b600090815260c960205260409020600101549392505050565b600054610100900460ff16158080156110ff5750600054600160ff909116105b806111195750303b158015611119575060005460ff166001145b6111355760405162461bcd60e51b815260040161070390613e57565b6000805460ff191660011790558015611158576000805461ff0019166101001790555b61116061213c565b61116b6000336121a9565b6111836000805160206142db833981519152336121a9565b61119b60008051602061429b833981519152336121a9565b6111c57f96e3fc3be15159903e053027cff8a23f39a990e0194abcd8ac1cf1b355b8b93c336121a9565b60cb829055801561086c576000805461ff0019169055604051600181527f7f26b83ff96e1f2b6a682f133852f6798a09c465da95921460cefb38474024989060200160405180910390a15050565b6000808383604051602001611229929190613bd5565b60408051601f198184030181529181528151602092830120600081815260c990935291206002015490915060ff166112a35760405162461bcd60e51b815260206004820152601f60248201527f536f7572636520636861696e206973206e6f7420696e697469616c697a6564006044820152606401610703565b600090815260c960205260409020549392505050565b6112c46000336113aa565b6113105760405162461bcd60e51b815260206004820152601e60248201527f44454641554c545f41444d494e5f524f4c4520697320726571756972656400006044820152606401610703565b7f22efc5f993dce37856b77dd72d7d7661032380c9728c4133f3c071c591bc6ca760d2838360405161134493929190613d25565b60405180910390a16107ed60d28383613452565b8051600090815260ce60209081526040808320828501518452909152812054611380836121b3565b81141561138c57600191505b50919050565b6000828152609760205260408120610b669083611984565b60009182526065602090815260408084206001600160a01b0393909316845291905290205460ff1690565b6113e0838383612229565b60006040518060a00160405280858152602001600160c96000888152602001908152602001600020600101546114169190614024565b81523360208201526001600160a01b03851660408201526060018390528051909150611441826121b3565b600082815260ce6020908152604080832060d0808452828520805486529184529184209490945584835290528154600192919061147f908490613fd9565b90915550505050505050565b600060c96000836040516020016114a29190613be5565b60408051601f198184030181529181528151602092830120835290820192909252016000206002015460ff1692915050565b6114ec60008051602061429b833981519152336113aa565b6115085760405162461bcd60e51b815260040161070390613e0e565b6115138160d1610ab2565b61155f5760405162461bcd60e51b815260206004820181905260248201527f457874726120636f6e7472616374206973206e6f7420726567697374657265646044820152606401610703565b6000805260d16020526115917efa5413e7b01fc543d01f0911de573ace463b956369df4472f39030e8d98b77826122ef565b506040516001600160a01b03821681526000907f4d393b64277bfc0b02e0459a74c316c7f22069352a678319fd8139ba4085e06190602001610b4f565b600081815260976020526040812061066c9061197a565b6115fd60008051602061429b833981519152336113aa565b6116195760405162461bcd60e51b815260040161070390613e0e565b60008260405160200161162c9190613be5565b60405160208183030381529060405280519060200120905060cd548114156116665760405162461bcd60e51b815260040161070390613ee9565b6107ed8183612304565b60008281526065602052604090206001015461168b81611990565b6107ed83836119bf565b600082826040516020016116aa929190613bd5565b60405160208183030381529060405280519060200120905060cd548114156117145760405162461bcd60e51b815260206004820152601c60248201527f53636861696e2063616e6e6f7420636f6e6e65637420697473656c66000000006044820152606401610703565b6107ed81612464565b600054610100900460ff161580801561173d5750600054600160ff909116105b806117575750303b158015611757575060005460ff166001145b6117735760405162461bcd60e51b815260040161070390613e57565b6000805460ff191660011790558015611796576000805461ff0019166101001790555b6117a2622dc6c06110df565b60cc80546001600160a01b0385166001600160a01b031990911617905560408051606081018252600080825260208083018290526001838501529251919260c9926117fb91016613585a5b9b995d60ca1b815260070190565b60408051808303601f19018152918152815160209283012083528282019390935290820160002083518155838201516001820155928201516002909301805460ff1916931515939093179092555161185591849101613be5565b60408051601f19818403018152919052805160209091012060cd5580156107ed576000805461ff0019169055604051600181527f7f26b83ff96e1f2b6a682f133852f6798a09c465da95921460cefb38474024989060200160405180910390a1505050565b6118d260008051602061429b833981519152336113aa565b6118ee5760405162461bcd60e51b815260040161070390613e0e565b6000826040516020016119019190613be5565b60405160208183030381529060405280519060200120905060cd5481141561193b5760405162461bcd60e51b815260040161070390613ee9565b6107ed818361254a565b60006001600160e01b03198216637965db0b60e01b148061066c57506301ffc9a760e01b6001600160e01b031983161461066c565b600061066c825490565b6000610b6683836125f5565b61199a813361261f565b50565b6119a78282612683565b60008281526097602052604090206107ed9082611ae6565b6119c98282612709565b60008281526097602052604090206107ed90826122ef565b6119f96000805160206142db833981519152336113aa565b611a155760405162461bcd60e51b815260040161070390613dd9565b600081604051602001611a289190613be5565b60408051601f198184030181529181528151602092830120600081815260c990935291206002015490915060ff16611a9d5760405162461bcd60e51b815260206004820152601860248201527710da185a5b881a5cc81b9bdd081a5b9a5d1a585b1a5e995960421b6044820152606401610703565b600090815260c9602052604081208181556001810191909155600201805460ff1916905550565b6001600160a01b03811660009081526001830160205260408120541515610b66565b6000610b66836001600160a01b038416612770565b604080518082018252823581526020808401359082015260cc548251632aa77bd360e11b81528351600094610b66949388936080808a013594938a01359360608b0135936001600160a01b03169263554ef7a6926004808301939192829003018186803b158015611b6b57600080fd5b505afa158015611b7f573d6000803e3d6000fd5b505050506040513d601f19601f82011682018060405250810190611ba39190613a30565b6127bf565b6000808383604051602001611bbe929190613bd5565b60408051808303601f190181528282528051602091820120908301819052908201879052915060009060600160405160208183030381529060405280519060200120905060005b87811015611d175781898983818110611c2057611c20614194565b9050602002810190611c329190613fc3565b611c409060208101906136b3565b8a8a84818110611c5257611c52614194565b9050602002810190611c649190613fc3565b611c759060408101906020016136b3565b6040805160208101949094526001600160a01b0392831690840152166060820152608001604051602081830303815290604052898983818110611cba57611cba614194565b9050602002810190611ccc9190613fc3565b611cda906040810190613f7d565b604051602001611cec93929190613bad565b6040516020818303038152906040528051906020012091508080611d0f90614123565b915050611c05565b50979650505050505050565b611d45611d3660408401602085016136b3565b6001600160a01b03163b151590565b611db357806000805160206142fb833981519152604051611da69060208082526026908201527f44657374696e6174696f6e20636f6e7472616374206973206e6f74206120636f6040820152651b9d1c9858dd60d21b606082015260800190565b60405180910390a2505050565b611dc360408301602084016136b3565b6001600160a01b031663884cee5a60cb5485856000016020810190611de891906136b3565b611df56040880188613f7d565b6040518663ffffffff1660e01b8152600401611e149493929190613ce7565b600060405180830381600088803b158015611e2e57600080fd5b5087f193505050508015611e40575060015b6107ed57611e4c6141c0565b806308c379a01415611ea25750611e616141dc565b80611e6c5750611efd565b816000805160206142fb833981519152611e87836040612989565b604051611e949190613d12565b60405180910390a250505050565b634e487b711415611efd57611eb5614265565b90611ec05750611efd565b816000805160206142fb83398151915282604051602001611ee391815260200190565b60408051601f1981840301815290829052611e9491613d12565b3d808015611f27576040519150601f19603f3d011682016040523d82523d6000602084013e611f2c565b606091505b50816000805160206142fb833981519152611e87836040612989565b60003a5a611f569190614005565b611f61903331613fd9565b905062695d1f60891b803b1580159061206a5750806001600160a01b03166391d14854826001600160a01b031663bc2a1e8d6040518163ffffffff1660e01b815260040160206040518083038186803b158015611fbd57600080fd5b505afa158015611fd1573d6000803e3d6000fd5b505050506040513d601f19601f82011682018060405250810190611ff5919061370b565b6040516001600160e01b031960e084901b168152600481019190915230602482015260440160206040518083038186803b15801561203257600080fd5b505afa158015612046573d6000803e3d6000fd5b505050506040513d601f19601f8201168201806040525081019061206a91906136d0565b801561207d5750670de0b6b3a764000082105b1561086c57600061209683670de0b6b3a7640000614024565b9050816001600160a01b0316318110156121105760405163204a3e9360e01b8152336004820152602481018290526001600160a01b0383169063204a3e93906044015b600060405180830381600087803b1580156120f357600080fd5b505af1158015612107573d6000803e3d6000fd5b50505050505050565b604051630a79309b60e01b81523360048201526001600160a01b03831690630a79309b906024016120d9565b600054610100900460ff166121a75760405162461bcd60e51b815260206004820152602b60248201527f496e697469616c697a61626c653a20636f6e7472616374206973206e6f74206960448201526a6e697469616c697a696e6760a81b6064820152608401610703565b565b61086c828261199d565b6000808260000151836020015160001b846040015160601b6bffffffffffffffffffffffff1916856060015160601b6bffffffffffffffffffffffff1916866080015160405160200161220a959493929190613b72565b60408051601f1981840301815291905280516020909101209392505050565b600083815260c9602052604090206002015460ff1661225a5760405162461bcd60e51b815260040161070390613ea5565b61226383612a53565b336001600160a01b031660c9600085815260200190815260200160002060010154847f803d7f3ca0e5f93fcce39fa29812ed57a95a151594966e17125220132741c6b085856040516122b6929190613c76565b60405180910390a4600160c9600085815260200190815260200160002060010160008282546122e59190613fd9565b9091555050505050565b6000610b66836001600160a01b038416612ac4565b6001600160a01b0381163b61235b5760405162461bcd60e51b815260206004820152601f60248201527f476976656e2061646472657373206973206e6f74206120636f6e7472616374006044820152606401610703565b6123778160d15b60008581526020919091526040902090611ac4565b156123945760405162461bcd60e51b815260040161070390613f39565b61239f8160d1610ab2565b156124085760405162461bcd60e51b815260206004820152603360248201527f457874726120636f6e747261637420697320616c7265616479207265676973746044820152726572656420666f7220616c6c20636861696e7360681b6064820152608401610703565b600082815260d1602052604090206124209082611ae6565b506040516001600160a01b038216815282907f03bcd152926369e3cf05cb7af471a15d680e8ec5d20b13705048d14e94679365906020015b60405180910390a25050565b61247c6000805160206142db833981519152336113aa565b6124985760405162461bcd60e51b815260040161070390613dd9565b600081815260c9602052604090206002015460ff16156124fa5760405162461bcd60e51b815260206004820152601a60248201527f436861696e20697320616c726561647920636f6e6e65637465640000000000006044820152606401610703565b6040805160608101825260008082526020808301828152600184860181815296845260c9909252939091209151825591519181019190915590516002909101805460ff1916911515919091179055565b6125558160d1612362565b6125a15760405162461bcd60e51b815260206004820181905260248201527f457874726120636f6e7472616374206973206e6f7420726567697374657265646044820152606401610703565b600082815260d1602052604090206125b990826122ef565b506040516001600160a01b038216815282907f4d393b64277bfc0b02e0459a74c316c7f22069352a678319fd8139ba4085e06190602001612458565b600082600001828154811061260c5761260c614194565b9060005260206000200154905092915050565b61262982826113aa565b61086c57612641816001600160a01b03166014612bbe565b61264c836020612bbe565b60405160200161265d929190613c01565b60408051601f198184030181529082905262461bcd60e51b825261070391600401613d12565b61268d82826113aa565b61086c5760008281526065602090815260408083206001600160a01b03851684529091529020805460ff191660011790556126c53390565b6001600160a01b0316816001600160a01b0316837f2f8788117e7eff1d82e926ec794901d17c78024a50270940304540a733656f0d60405160405180910390a45050565b61271382826113aa565b1561086c5760008281526065602090815260408083206001600160a01b0385168085529252808320805460ff1916905551339285917ff6391f5c32d9c69d2a47ea670b442974b53935d1edc7fd64eb21e047a839171b9190a45050565b60008181526001830160205260408120546127b75750815460018181018455600084815260208082209093018490558454848252828601909352604090209190915561066c565b50600061066c565b60006127ca87612d59565b61280f5760405162461bcd60e51b815260206004820152601660248201527514da59db985d1d5c99481a5cc81b9bdd081d985b1a5960521b6044820152606401610703565b61281b86868686612d8f565b6128275750600061297f565b60006128368860200151612e7d565b9050612846886000015182612ea2565b6128835760405162461bcd60e51b815260206004820152600e60248201526d5369676e206e6f7420696e20473160901b6044820152606401610703565b61288d8585612ea2565b6128ca5760405162461bcd60e51b815260206004820152600e60248201526d48617368206e6f7420696e20473160901b6044820152606401610703565b60006128d4612ed8565b90506128df84612f98565b6129225760405162461bcd60e51b8152602060048201526014602482015273283ab13634b19025b2bc903737ba1034b710239960611b6044820152606401610703565b61297a8960000151838360000151602001518460000151600001518560200151602001518660200151600001518c8c8c60000151602001518d60000151600001518e60200151602001518f6020015160000151612fac565b925050505b9695505050505050565b606060008351831061299c57835161299e565b825b90506000816001600160401b038111156129ba576129ba6141aa565b6040519080825280601f01601f1916602001820160405280156129e4576020820181803683370190505b50905060005b82811015612a4a57858181518110612a0457612a04614194565b602001015160f81c60f81b828281518110612a2157612a21614194565b60200101906001600160f81b031916908160001a90535080612a4281614123565b9150506129ea565b50949350505050565b612a5e600033610e9e565b80612a6e5750612a6e8133610e9e565b61199a5760405162461bcd60e51b815260206004820152602160248201527f53656e64657220636f6e7472616374206973206e6f74207265676973746572656044820152601960fa1b6064820152608401610703565b60008181526001830160205260408120548015612bad576000612ae8600183614024565b8554909150600090612afc90600190614024565b9050818114612b61576000866000018281548110612b1c57612b1c614194565b9060005260206000200154905080876000018481548110612b3f57612b3f614194565b6000918252602080832090910192909255918252600188019052604090208390555b8554869080612b7257612b7261417e565b60019003818190600052602060002001600090559055856001016000868152602001908152602001600020600090556001935050505061066c565b600091505061066c565b5092915050565b60606000612bcd836002614005565b612bd8906002613fd9565b6001600160401b03811115612bef57612bef6141aa565b6040519080825280601f01601f191660200182016040528015612c19576020820181803683370190505b509050600360fc1b81600081518110612c3457612c34614194565b60200101906001600160f81b031916908160001a905350600f60fb1b81600181518110612c6357612c63614194565b60200101906001600160f81b031916908160001a9053506000612c87846002614005565b612c92906001613fd9565b90505b6001811115612d0a576f181899199a1a9b1b9c1cb0b131b232b360811b85600f1660108110612cc657612cc6614194565b1a60f81b828281518110612cdc57612cdc614194565b60200101906001600160f81b031916908160001a90535060049490941c93612d0381614067565b9050612c95565b508315610b665760405162461bcd60e51b815260206004820181905260248201527f537472696e67733a20686578206c656e67746820696e73756666696369656e746044820152606401610703565b60006000805160206142bb833981519152826000015110801561066c575050602001516000805160206142bb8339815191521190565b60006064841115612da257506000612e75565b6000612dbc6000805160206142bb8339815191528761413e565b90506000805160206142bb833981519152612dd78683613fd9565b612de1919061413e565b905060006000805160206142bb83398151915260036000805160206142bb833981519152846000805160206142bb83398151915286870909089050612e3560026000805160206142bb833981519152613ff1565b841080612e535750806000805160206142bb83398151915285860914155b80612e5e5750848214155b15612e6e57600092505050612e75565b6001925050505b949350505050565b60006000805160206142bb833981519152612e988382614024565b61066c919061413e565b60006000805160206142bb83398151915280600381868188890909088180612ecc57612ecc614168565b84850914949350505050565b612ee06134d6565b50604080516080810182527f1800deef121f1e76426a00665e5c4479674322d4f75edadd46debd5cd992f6ed8183019081527f198e9393920d483a7260bfb731fb5d25f1aa493335a9e71297e485b7aef312c26060830152815281518083019092527f12c85ea5db8c6deb4aab71808dcb408fe3d1e7690c43d37b4ce6cc0166fa7daa82527f090689d0585ff075ec9e99ad690c3395bc4b313370b38ef355acdadcd122975b60208381019190915281019190915290565b600061066c8260000151836020015161307c565b600080612fb761351a565b8e8152602081018e9052604081018d9052606081018c9052608081018b905260a081018a905260c0810189905260e081018890526101008101879052610120810186905261014081018590526101608101849052613013613539565b602081610180846008600019fa9250826130665760405162461bcd60e51b815260206004820152601460248201527314185a5c9a5b99c818da1958dac819985a5b195960621b6044820152606401610703565b5115159f9e505050505050505050505050505050565b60006130888383613150565b156130955750600161066c565b60006130a083613183565b90506000613133613110604080518082018252600080825260209182015281518083019092527f2b149d40ceb8aaae81be18991be06ac3b5b4c5e559dbefa33267e6dc24a138e582527e9713b03af0fed4cd2cafadeed8fdf4a74fa084e52d1852e4a2bd0685c315d29082015290565b61312d613126886131208a613183565b90613239565b859061334c565b9061334c565b805190915015801561314757506020810151155b95945050505050565b815160009015801561316457506020830151155b8015613171575081516001145b8015610b665750506020015115919050565b60408051808201909152600080825260208201526000805160206142bb83398151915260008160208501518551099050600082806131c3576131c3614168565b83806131d1576131d1614168565b84806131df576131df614168565b60208801516131ef600188614024565b09875108848061320157613201614168565b60208801518851080990506040518060400160405280828152602001848061322b5761322b614168565b848508905295945050505050565b604080518082019091526000808252602082015260006000805160206142bb833981519152905060006040518060400160405280838061327b5761327b614168565b86518851098152602001838061329357613293614168565b86602001518860200151099052905081806132b0576132b0614168565b82806132be576132be614168565b60208301516132ce600186614024565b09825108835281806132e2576132e2614168565b82806132f0576132f0614168565b60208301518351086133029084614024565b838061331057613310614168565b848061331e5761331e614168565b6020880151885108858061333457613334614168565b60208a01518a51080908602084015250909392505050565b6040805180820190915260008082526020820152815183516000805160206142bb833981519152911161339d57808061338757613387614168565b83516133939083614024565b85510882526133d2565b8081806133ac576133ac614168565b85516133b89084614024565b8551086133c59083614024565b6133cf919061413e565b82525b826020015184602001511061340e5780806133ef576133ef614168565b60208401516133fe9083614024565b8560200151086020830152612bb7565b80818061341d5761341d614168565b602086015161342c9084614024565b85602001510861343c9083614024565b613446919061413e565b60208301525092915050565b82805461345e9061407e565b90600052602060002090601f01602090048101928261348057600085556134c6565b82601f106134995782800160ff198235161785556134c6565b828001600101855582156134c6579182015b828111156134c65782358255916020019190600101906134ab565b506134d2929150613557565b5090565b60408051608081018252600091810182815260608201929092529081908152602001613515604051806040016040528060008152602001600081525090565b905290565b604051806101800160405280600c906020820280368337509192915050565b60405180602001604052806001906020820280368337509192915050565b5b808211156134d25760008155600101613558565b60008083601f84011261357e57600080fd5b5081356001600160401b0381111561359557600080fd5b6020830191508360208260051b85010111156135b057600080fd5b9250929050565b600082601f8301126135c857600080fd5b81356001600160401b038111156135e1576135e16141aa565b6040516135f8601f8301601f1916602001826140f7565b81815284602083860101111561360d57600080fd5b816020850160208301376000918101602001919091529392505050565b60008083601f84011261363c57600080fd5b5081356001600160401b0381111561365357600080fd5b6020830191508360208285010111156135b057600080fd5b60006040828403121561367d57600080fd5b604051613689816140b3565b80915082518152602083015160208201525092915050565b600060a0828403121561138c57600080fd5b6000602082840312156136c557600080fd5b8135610b6681614285565b6000602082840312156136e257600080fd5b81518015158114610b6657600080fd5b60006020828403121561370457600080fd5b5035919050565b60006020828403121561371d57600080fd5b5051919050565b6000806040838503121561373757600080fd5b82359150602083013561374981614285565b809150509250929050565b60008060006060848603121561376957600080fd5b83359250602084013561377b81614285565b915060408401356001600160401b0381111561379657600080fd5b6137a2868287016135b7565b9150509250925092565b6000806000604084860312156137c157600080fd5b8335925060208401356001600160401b038111156137de57600080fd5b6137ea8682870161356c565b9497909650939450505050565b60008060c0838503121561380a57600080fd5b8235915061381b84602085016136a1565b90509250929050565b6000806040838503121561383757600080fd5b50508035926020909101359150565b60008060006060848603121561385b57600080fd5b505081359360208301359350604090920135919050565b60006020828403121561388457600080fd5b81356001600160e01b031981168114610b6657600080fd5b600080604083850312156138af57600080fd5b82356138ba81614285565b915060208301356001600160401b038111156138d557600080fd5b6138e1858286016135b7565b9150509250929050565b600080602083850312156138fe57600080fd5b82356001600160401b0381111561391457600080fd5b6139208582860161362a565b90969095509350505050565b600080600080600080610100878903121561394657600080fd5b86356001600160401b038082111561395d57600080fd5b6139698a838b0161362a565b909850965060208901359550604089013591508082111561398957600080fd5b5061399689828a0161356c565b90945092506139aa905088606089016136a1565b90509295509295509295565b6000602082840312156139c857600080fd5b81356001600160401b038111156139de57600080fd5b612e75848285016135b7565b600080604083850312156139fd57600080fd5b82356001600160401b03811115613a1357600080fd5b613a1f858286016135b7565b925050602083013561374981614285565b600060808284031215613a4257600080fd5b604051613a4e816140b3565b613a58848461366b565b8152613a67846040850161366b565b60208201529392505050565b600060208284031215613a8557600080fd5b81356001600160401b0380821115613a9c57600080fd5b9083019060a08286031215613ab057600080fd5b604051613abc816140d8565b82358152602083013560208201526040830135613ad881614285565b60408201526060830135613aeb81614285565b6060820152608083013582811115613b0257600080fd5b613b0e878286016135b7565b60808301525095945050505050565b81835281816020850137506000828201602090810191909152601f909101601f19169091010190565b60008151808452613b5e81602086016020860161403b565b601f01601f19169290920160200192915050565b85815284602082015283604082015282606082015260008251613b9c81608085016020870161403b565b919091016080019695505050505050565b60008451613bbf81846020890161403b565b8201838582376000930192835250909392505050565b8183823760009101908152919050565b60008251613bf781846020870161403b565b9190910192915050565b7f416363657373436f6e74726f6c3a206163636f756e7420000000000000000000815260008351613c3981601785016020880161403b565b7001034b99036b4b9b9b4b733903937b6329607d1b6017918401918201528351613c6a81602884016020880161403b565b01602801949350505050565b6001600160a01b0383168152604060208201819052600090612e7590830184613b46565b6020808252825182820181905260009190848201906040850190845b81811015613cdb5783516001600160a01b031683529284019291840191600101613cb6565b50909695505050505050565b8481526001600160a01b038416602082015260606040820181905260009061297f9083018486613b1d565b602081526000610b666020830184613b46565b60408152600080855481600182811c915080831680613d4557607f831692505b6020808410821415613d6557634e487b7160e01b86526022600452602486fd5b6040880184905260608801828015613d845760018114613d9557613dc0565b60ff19871682528282019750613dc0565b60008d81526020902060005b87811015613dba57815484820152908601908401613da1565b83019850505b505087860381890152505050505061297f818587613b1d565b6020808252818101527f434841494e5f434f4e4e4543544f525f524f4c45206973207265717569726564604082015260600190565b60208082526029908201527f45585452415f434f4e54524143545f5245474953545241525f524f4c45206973604082015268081c995c5d5a5c995960ba1b606082015260800190565b6020808252602e908201527f496e697469616c697a61626c653a20636f6e747261637420697320616c72656160408201526d191e481a5b9a5d1a585b1a5e995960921b606082015260800190565b60208082526024908201527f44657374696e6174696f6e20636861696e206973206e6f7420696e697469616c6040820152631a5e995960e21b606082015260800190565b60208082526030908201527f44657374696e6174696f6e20636861696e20686173682063616e6e6f7420626560408201526f1032b8bab0b6103a379034ba39b2b63360811b606082015260800190565b60208082526024908201527f457874726120636f6e747261637420697320616c726561647920726567697374604082015263195c995960e21b606082015260800190565b6000808335601e19843603018112613f9457600080fd5b8301803591506001600160401b03821115613fae57600080fd5b6020019150368190038213156135b057600080fd5b60008235605e19833603018112613bf757600080fd5b60008219821115613fec57613fec614152565b500190565b60008261400057614000614168565b500490565b600081600019048311821515161561401f5761401f614152565b500290565b60008282101561403657614036614152565b500390565b60005b8381101561405657818101518382015260200161403e565b838111156110605750506000910152565b60008161407657614076614152565b506000190190565b600181811c9082168061409257607f821691505b6020821081141561138c57634e487b7160e01b600052602260045260246000fd5b604081018181106001600160401b03821117156140d2576140d26141aa565b60405250565b60a081018181106001600160401b03821117156140d2576140d26141aa565b601f8201601f191681016001600160401b038111828210171561411c5761411c6141aa565b6040525050565b600060001982141561413757614137614152565b5060010190565b60008261414d5761414d614168565b500690565b634e487b7160e01b600052601160045260246000fd5b634e487b7160e01b600052601260045260246000fd5b634e487b7160e01b600052603160045260246000fd5b634e487b7160e01b600052603260045260246000fd5b634e487b7160e01b600052604160045260246000fd5b600060033d11156141d95760046000803e5060005160e01c5b90565b600060443d10156141ea5790565b6040516003193d81016004833e81513d6001600160401b03816024840111818411171561421957505050505090565b82850191508151818111156142315750505050505090565b843d870101602082850101111561424b5750505050505090565b61425a602082860101876140f7565b509095945050505050565b60008060233d1115614281576020600460003e50506000516001905b9091565b6001600160a01b038116811461199a57600080fdfe6155b5aac15ce9aa193c0527a6f43be0a36a7e2e7496c2b615c0e5f92284277330644e72e131a029b85045b68181585d97816a916871ca8d3c208c16d87cfd472785f35fe7d8743aa971942d8474737bb31895d396eff2cc688a481e0221e1914b7d3908626050c0d998d657e4e6f31cb43ed736bf2b9a1a0192494537ca0e59a2646970667358221220b6b9e90fb28817ce23cab7363b321c3ace2c24267dd7ba6c6eb9ba14fcb4952464736f6c63430008060033",
  "linkReferences": {},
  "deployedLinkReferences": {}
}